:100000000C949E020C94BB020C94BB020C94BB0299
:100010000C94BB020C94BB020C94BB020C94BB026C
:100020000C94BB020C94BB020C946A140C94301315
:100030000C94F3230C94BB020C94BB020C94BB02F3
:100040000C94BB020C94BB020C94BB020C94BB023C
:100050000C94BB020C9474130C94BB020C94BB0262
:100060000C94BB020C94BB020C94BB020C94BB021C
:100070000C94BB020C94BB020C94BB020C94BB020C
:100080000C94BB020C94BB020C94BB020C94BB02FC
:100090000C94BB020C94BB020C94BB020C94BB02EC
:1000A0000C94BB020C94BB020C94BB020001010136
:1000B0000101010101010202020202020202020325
:1000C00003030303030303040404040404040505F5
:1000D00005050506060606060707070707080808B8
:1000E00008090909090A0A0A0B0B0B0C0C0C0D0D67
:1000F0000D0E0E0E0F0F0F101011111112121313FF
:100100001414151516161717181819191A1A1B1B77
:100110001C1D1D1E1E1F20202122222324242526D3
:1001200026272829292A2B2C2D2D2E2F303132320B
:10013000333435363738393A3B3C3D3E3F40414217
:10014000434445464748494A4C4D4E4F50515354FD
:10015000555658595A5B5D5E5F61626465666869B1
:100160006B6C6D6F7072737577787A7B7D7E808231
:10017000838587888A8C8E8F91939596989A9C9E7A
:10018000A0A2A3A5A7A9ABADAFB1B3B5B7BABCBE8A
:10019000C0C2C4C6C9CBCDCFD1D4D6D8DBDDDFE257
:1001A000E4E7E9EBEEF0F3F5F8FAFDFFFFAA7F557F
:1001B000402223252628292A2C2D2F30323335366C
:1001C000383A3B3D3E4042434547494A4C4E5051E8
:1001D000535557595A5C5E6062646668696B6D6F0F
:1001E00071737577797B7D7F81838587898A8C8E12
:1001F00090929496989A9C9E9FA1A3A5A7A8AAAC1A
:10020000AEAFB1B3B4B6B8B9BBBCBEBFC1C2C3C553
:10021000C6C7C9CACBCCCDCED0D1D2D2D3D4D5D6F5
:10022000D7D7D8D9D9DADADBDBDBDCDCDCDCDCDD28
:10023000DDDDDDDCDCDCDCDCDBDBDBDADAD9D9D80C
:10024000D7D7D6D5D4D3D2D2D1D0CECDCCCBCAC9A4
:10025000C7C6C5C3C2C1BFBEBCBBB9B8B6B4B3B1D3
:10026000AFAEACAAA8A7A5A3A19F9E9C9A9896946E
:1002700092908E8C8A89878583817F7D7B79777543
:1002800073716F6D6B6968666462605E5C5A595722
:10029000555351504E4C4A4947454342403E3D3BE1
:1002A0003A3836353332302F2D2C2A29282625236B
:1002B000222E004C002A00E100015100001E001413
:1002C0000004001D002C0814091F001A0016001B52
:1002D0000035002A0020000800070006002F002C2F
:1002E0000021001500090019003000E0002200176D
:1002F000000A00050000000153A800AC000000AA9D
:10030000000000E300AE00AB000000A9000000E226
:100310000023001C000B001100000029002400181D
:10032000000D0010005200150825000C000E0036CC
:100330000051002800260012000F00370050002B4B
:100340000027001300330038004F0034082D00311F
:10035000003400E500340000002900010001000124
:1003600000010000003A001E022002220201000EDD
:100370005D3B001F02210223020100C95C3C002FEB
:100380000226022F000100CA5C3D00300227023025
:100390000001000D5D3E0031023500350200000114
:1003A00000010001000000010000000C5D010001DF
:1003B00000000001000000C25C3F00520051002418
:1003C0000200000B5D4000240021001E000100011E
:1003D000004100250022001F003700C55C420026B6
:1003E00000230020002700C65C430025022E0231B6
:1003F000002E000100440045006900690001000072
:100400000032190A00047F3F1F64321464321478EA
:100410003C1E1E140A0505010980A101850319016E
:100420002AB700150126B700950175108100C00597
:100430000C0901A101850419012AA002150126A0B9
:1004400002950175108100C005010906A10185050D
:10045000050719E029E715002501950875018102B6
:100460000507190029EF1500250195F07501810296
:100470000508190129059505750191029501750376
:100480009101C005010906A101050719E029E71539
:100490000025019508750181029501750881010506
:1004A00007190029FF150026FF0095067508810031
:1004B0000508190129059505750191029501750336
:1004C0009101C009023B00020100A0FA09040000EA
:1004D000010301010009211101000122400007056B
:1004E000810308000A09040100010300000009213A
:1004F00011010001226D000705820320000A12018C
:10050000100100000008EDFE0713010001020301C5
:1005100004033000000016034500720067006F00FE
:1005200064006F007800200045005A0000000803B6
:100530005A005300410000000403090411241FBEA7
:10054000CFEFDAE0DEBFCDBF23E0A8E2B2E001C02A
:100550001D92A23FB207E1F712E0A0E0B1E0E4E4AF
:10056000FFE402C005900D92A832B107D9F70E94AE
:100570002D210C945A270C940000E8EDF0E08081C6
:100580008E7F80831092E2001092DA001092E100D8
:10059000A0EEB0E08C9181608C9380818F77808316
:1005A00019BCA7EDB0E08C918E7F8C9380818F7EFB
:1005B00080831092BD0308952091E4003091E500FE
:1005C00095E6A9012091EC00822F817020FF06C0E2
:1005D0008091E80080FF06C080E008952091E80047
:1005E00022FD1AC08091E403882389F0853089F0C8
:1005F0008091EB0085FD0FC02091E4003091E50073
:1006000042175307F9F29150E1F684E0089582E031
:10061000089583E0089581E00895EF92FF920F938B
:100620001F93CF937C018B010E94DC02C82F8111A4
:1006300017C08091E80085FD0BC08091E8008E779F
:100640008093E8000E94DC02882399F3C82F08C039
:10065000F70181917F018093F1000150110949F761
:100660008C2FCF911F910F91FF90EF900895809163
:10067000E60387FF13C08091E80082FF06C08091E7
:10068000E8008B778093E80004C08091E403811137
:10069000F2CF08958091E4038823D9F38091E80094
:1006A00080FFF8CF8091E8008E77ECCF982F909361
:1006B000E900242F762F50E0891731F07091EC007B
:1006C0002091ED005091F00021FD07C09F5F973011
:1006D00071F78093E90081E008953091EB003E7F4F
:1006E0003093EB003091ED003D7F3093ED00309181
:1006F000EB0031603093EB007093EC002093ED0041
:100700005093F0002091EE0027FDE0CF80E00895A7
:10071000CF92DF92EF92FF920F931F93CF93DF93CD
:10072000C8EDD0E088818F7E8883E7EDF0E080819E
:100730008160808384E082BF81E08093BD038881F3
:100740008E7F888302EE10E0F80110821092DA00AA
:1007500081EEC82ED12CF601108288818F77888394
:1007600088818068888388818F7D888319BC1092F6
:10077000E4031092E5031092E3031092E20390EE7B
:10078000E92EF12CF70180818B7F80838881816045
:10079000888342E060E080E00E945603F601808199
:1007A0008E7F8083F8018081816080838081886072
:1007B0008083F70180818E7F808388818061888338
:1007C000DF91CF911F910F91FF90EF90DF90CF902D
:1007D0000895FC018091EC039091ED038617970733
:1007E000A0F06115710529F49091E8009E7790932F
:1007F000E80090E06115710551F4911108C08091F5
:10080000E80082FF34C080E00895BC01F2CF8091FF
:10081000E4038823C1F18530C1F18091E80083FDB4
:1008200030C08091E80082FDEACF8091E80080FF2F
:10083000E1CF8091F3002091F200382F611571050E
:1008400019F02830310558F091E02830310509F0D1
:1008500090E02091E8002E772093E800CBCF8191A3
:100860008093F100615071092F5F3F4FE7CF809176
:10087000E403882341F0853041F08091E80083FF54
:10088000BECF81E0089582E0089583E00895089541
:1008900008958091C1030895209123012223C9F076
:1008A0002091840327FF15C0E62FE695E695E6958F
:1008B000EE31D8F4E80FF92FF11D677021E030E038
:1008C00001C0220F6A95EAF72095828128232283AE
:1008D0000895FC01329608962191621303C0DF014E
:1008E00011971C92E817F907B9F708952091230191
:1008F0002223C1F02091840327FF14C0E62FE69540
:10090000E695E695EE31F8F4E80FF92FF11D6770E2
:1009100021E030E001C0220F6A95EAF78281822B44
:1009200082830895FC0132962FEF30E041916417E5
:1009300051F02F3F19F4411101C0232F3F5F363092
:10094000A9F72F3F09F40895820F911D27FD9A956D
:10095000FC016283089580916703811110926703FF
:1009600008958091660390916503892B90916403AB
:10097000892B80932802909167039923A1F0892BFA
:100980008093280280912301882341F18091840380
:1009900087FF24C08EE1EAE2F2E090E0815000F5AA
:1009A00091110E94AB04E0918B03F0918C0330977E
:1009B000E1F080912301882359F08091840387FF1F
:1009C00007C0809128028093290285E08093280245
:1009D0000280F381E02D88E292E0099486E0DBCF8B
:1009E00021912223D9F29F5FD9CF0895E92FEE0FED
:1009F000E90FEE0F8E0F982F977086958695869546
:100A000025E0829FF0011124E45DFC4F50E040E0BE
:100A100080E0219130E0092E02C0369527950A9496
:100A2000E2F721703327042E01C0220F0A94EAF75F
:100A3000822B4F5F5F4F4530510559F70895E92FDD
:100A4000EE0FE90FEE0F8E0F982F977041E001C067
:100A5000440F9A95EAF786958695869595E0899F45
:100A6000F0011124E45DFC4F30E020E070E0519192
:100A7000DF011197CB01022E02C0969587950A944B
:100A8000E2F7817081958527842385278C932F5FDA
:100A90003F4F2530310559F7089580912B039091F0
:100AA000FA02981301C008958F5F8770FACF8823E8
:100AB00041F08095909165038923809365030C94A0
:100AC000B1040895882339F090916503982B909391
:100AD00065030C94B1040895882341F080959091AA
:100AE00066038923809366030C94B10408958823D8
:100AF00039F090916603982B909366030C94B1049F
:100B000008952091DD023091DE022817390771F037
:100B10009093DE028093DD02E0918B03F0918C03D1
:100B2000309721F00084F185E02D099408952091FB
:100B3000DB023091DC022817390771F09093DC0258
:100B40008093DB02E0918B03F0918C03309721F0CE
:100B50000680F781E02D09940895109265031092A4
:100B600064030E94B10490E080E00E94970590E049
:100B700080E00C948105609368037093690380930F
:100B80006A0390936B030C94AD05882379F19CEF75
:100B9000980F913A38F4682F88E292E00E944C0452
:100BA0000C94B10490E2980F983088F4877021E09B
:100BB00030E0A90102C0440F551F8A95E2F7CA012F
:100BC000809590916603892380936603E9CF9BE526
:100BD000980F933020F490E080E00C949705885AA9
:100BE000873120F490E080E00C9481050895CF9344
:100BF000C82F882309F467C08CEF8C0F813AC0F5A9
:100C000080912301882311F18091840387FF1EC006
:100C1000EC2FE695E695E695F0E0E85DFD4F8281E4
:100C200090E04C2F477021E030E002C0220F331FCC
:100C30004A95E2F782239323892B91F06C2F88E267
:100C400092E00E944C040E94B1040AC0EAE2F2E081
:100C500080E392E02191C21789F38E179F07D1F7A5
:100C60006C2F88E292E00E947604CF910C94B1043C
:100C700080E28C0F883068F4C77021E030E001C05A
:100C8000220FCA95EAF780916603822B8093660350
:100C9000ECCFEBE5EC0FE33040F4F0E0E950FE4F31
:100CA000808190E0CF910C949705C85AC73158F4D1
:100CB000EC2FF0E0EE0FFF1FE650FE4F8081918198
:100CC000CF910C948105CF910895E0918B03F09121
:100CD0008C03309721F00190F081E02D099480E0A1
:100CE0000895FA01811101C0FB0109948091A603C6
:100CF000982F9E7F29F4817082608093A6030895C7
:100D00008635E8F381708465F8CFAF92BF92DF92A9
:100D1000EF92FF920F931F93CF93DF93082F162F1D
:100D2000E901E42FF0E0E455FF4F611111C0E491B7
:100D30005E2F4E2F4983E8835A831B82DF91CF9128
:100D40001F910F91FF90EF90DF90BF90AF900895AB
:100D5000E62EF12C4491D42EE42FF0E026E0829F81
:100D6000C00111242FEF30E0B9010E94ED24802F43
:100D700090E0880F991F55E5569FD001579FB00D01
:100D800011248A1B9B0B982F990F890F5901AE18BC
:100D9000BF08AE9ED001AF9EB00DBE9EB00D112417
:100DA0005B2F189F80011124012F11275901A01AD0
:100DB000B10AAE9E8001AF9E100DBE9E100D112493
:100DC0005901A81AB108AE9CC001AF9C900DBE9C01
:100DD000900D1124892F9927281B390B2E9FC001B4
:100DE0002F9F900D3E9F900D1124E92F62307105C9
:100DF000A1F050F46115710509F49CCF61307105C3
:100E000081F0EB2F512F96CF6430710569F080F09F
:100E10006630710509F48ECFF4CFE42F4B2F592F94
:100E200089CFE42F412F86CFEB2F542F492F82CF2C
:100E30004B2F5D2DE12F7ECF9091840392FF06C052
:100E4000282F28712830F9F4877F846093FF06C02B
:100E5000282F28712831F1F4877E84612091850341
:100E600020FF06C0382F38713830D9F4877F816071
:100E700021FF06C0282F28712831D1F4877E816197
:100E800094FD877E0895282F24712430F9F68B7FF6
:100E90008860DCCF282F2471243101F78B7E886194
:100EA000DDCF382F3171313019F78E7F8860E0CF78
:100EB000282F2171213121F78E7E8861E1CFCF93D8
:100EC000DF93972F70E026E0929F600D711D112433
:100ED000FB0134E5839FE00DF11D1124EE0FFF1F90
:100EE000EF54FD4FC591D491CE01C238D105B9F16F
:100EF000E8F5C133D10509F499C050F5C932D105DF
:100F000009F48DC0CA32D10509F497C0C11542E574
:100F1000D40708F0B6C0C11521E5D20708F02EC1EC
:100F2000C83ED10508F09DC0C03ED10568F5C83A5D
:100F3000D10508F089C0C53AD10508F0F7C0C13025
:100F4000D10511F1209709F443C02497E8F440C07B
:100F5000C533D10509F45CC0C933D105B9F6209178
:100F60008403237089F080EE90E00EC0C33ED1056B
:100F700091F168F4C03ED105F9F0C23ED10531F6D9
:100F80002091840322FD20C0DF91CF910895C63EB9
:100F9000D10561F1C73ED10581F1C43ED10509F00B
:100FA000B5CF2091850321FFEFCF8091840384FD8D
:100FB0000FC087EE90E0E8CF2091840320FD0EC1A2
:100FC0003091850330FFE0CF83EE90E024FFDCCF4B
:100FD00090E080E0D9CF2091840322FD02C13091BE
:100FE000850330FDC0CF24FFCFCFF2CF2091840303
:100FF00023FFCACF24FDECCFDCCF2091840323FD57
:10100000F3C03091850331FFEECF84EE90E0BCCF8A
:101010002091840325FFB8CF89E290E0B5CF2091DD
:10102000840325FFB1CF85E390E0AECF2091840308
:1010300026FFAACF8AE290E0A7CF2091840326FF63
:10104000A3CF81E390E0A0CFCF3BD10508F6C85AEB
:10105000D0E0CC0FDD1FC650DE4F888199819464AB
:1010600093CFC11530E5D30708F06CC0C11540E43B
:10107000D40708F063C0DA95C115DF4108F484CFC6
:10108000A7CFC11536E5D30718F5C11545E5D40737
:1010900008F08AC0C11584E5D80708F080C09C2FED
:1010A00096959695AE0143705527C115D34508F422
:1010B0006AC021E030E002C0220F331F4A95E2F7F8
:1010C00040E2949FC0011124822B932B9A685CCF3D
:1010D000C1153AE5D30778F4C11549E5D40708F0FE
:1010E0006DC0C11588E5D80708F472CF9C2F8827FA
:1010F000806F906A49CFC1159BE5D90708F468CF86
:10110000CE01C1152CE5D20708F465C090568115B3
:10111000904208F05DCF8D2F8F710E941C0790E0E8
:10112000982F882788279F718C2B46C0C55AD0E0FE
:10113000C950DE4F888190E0906426CFCE019F7029
:10114000906A22CF9E01E4E036952795EA95E1F773
:1011500023708C2F86958695837040E2849FC00112
:101160001124922BC37021E030E002C0220F331F04
:10117000CA95E2F7822B932B9C6806CF9C2F882779
:10118000816F906A01CF21E030E002C0220F331F4F
:101190004A95E2F740E2949FC0011124EBCF9C2FC7
:1011A0008827846F906AF0CE8C2F0E941C0790E0F5
:1011B000982F882788279F719062E6CE8C2F8F709A
:1011C0000E941C0734E0D695C7953A95E1F7CF7099
:1011D0009C2F9069D9CE99279066D6CE89E390E06E
:1011E000D3CE82EE90E0D0CE86EE90E0CDCEBF9210
:1011F000CF92DF92EF92FF920F931F93CF93DF93E3
:101200008C01C0908703D0908803E0908903F09010
:101210008A038091680390916903A0916A03B09159
:101220006B03C82AD92AEA2AFB2ACFE1D0E0BC2ED8
:10123000D701C6010C2E04C0B695A7959795879542
:101240000A94D2F780FD0EC0219788F7B12C8B2D20
:10125000DF91CF911F910F91FF90EF90DF90CF9092
:10126000BF900895B8018C2F0E945F07019761F32A
:10127000EECFCF93DF93EC010E94F708BE01DF9120
:10128000CF910C945F070E943909292F2F709295F6
:101290009F7092509E3078F4E92FF0E0E45AF84DB8
:1012A0000C941525803F19F020F4883E20F481E04D
:1012B0000895843FE1F380E00895883EC0F3813FC4
:1012C000D1F7F5CF822F8695869586950895279834
:1012D0002F98089526982E98089525982D9808956A
:1012E00056985E980895279A2F9A0895269A2E9ACE
:1012F0000895259A2D9A089584B1807F84B985B187
:10130000807F85B98AB1837F8AB98BB1837F8BB99E
:101310003E984698089580B38C7080BB81B3836FEC
:1013200081BB0895CF93DF9300D00F92CDB7DEB786
:101330009091E403943019F589837B836A8382E07A
:101340008093E9008FEF9091E800815095FD06C0F1
:1013500095ED9A95F1F700008111F5CF8091E800A5
:1013600085FF0DC050E040E063E070E0CE010196E3
:101370000E940D038091E8008E778093E8000F9023
:101380000F900F90DF91CF9108952091E4032430C6
:1013900021F4BC0184E00C9492090895BC0183E01F
:1013A0000C949209CF93DF93EC018091E403843095
:1013B000B9F5809123018823B1F18091840387FFDF
:1013C00032C060E282E08093E9008FEF9091E80004
:1013D000815095FD06C095ED9A95F1F700008111B9
:1013E000F5CF8091E80085FF1BC08091230170E05C
:1013F00050E040E0811104C050E040E068E070E05F
:10140000CE010E940D038091E8008E778093E80062
:1014100080E2FE01A2ECB3E001900D928A95E1F723
:10142000DF91CF91089568E081E0CDCFCF93C82FB1
:101430000E94F705C93349F42FEF87EE93E021505E
:1014400080409040E1F700C000008C2FCF910C94B9
:10145000C505EF92FF920F931F93CF93DF930E94E6
:1014600070090E946D090E946A090E94670988E854
:10147000E82EF12C8FEF90E0F701918380830AE84A
:1014800010E0F80191838083CCE8D0E099838883D1
:101490000E947909FFEF20E782E0F1502040804070
:1014A000E1F700C000000E9476099FEFE0E7F2E05C
:1014B0009150E040F040E1F700C000000E94730945
:1014C0002FEF80E792E0215080409040E1F700C08C
:1014D00000000E946D09EFEFF0E722E0E150F040DC
:1014E0002040E1F700C000000E946A098FEF90E7FA
:1014F000E2E081509040E040E1F700C000000E942F
:101500006709809172038770FFEF8F9FC0011124DC
:1015100095958795959587959927F7019183808370
:10152000F80191838083998388830E9470090E94C7
:101530006D090E946A09DF91CF911F910F91FF9071
:10154000EF900C946709CF9384E090E00E94AF265F
:10155000C82F81E290E00E94AF26982F8C2FCF9168
:101560000895CF92DF92EF92FF926B017C010E946F
:101570007606B701A60188E090E0FF90EF90DF903B
:10158000CF900C94D5268091AA03833018F48F5FF6
:101590008093AA036091A6037091A7038091A8038A
:1015A0009091A9030C94B10A8091AA03882319F0A1
:1015B00081508093AA036091A6037091A703809144
:1015C000A8039091A9030C94B10AE6EAF3E083E042
:1015D000808311828FEF8283838314826081718183
:1015E000828193810C94B10A6FEE7EEF90E080E0EF
:1015F0000E94E12660E082E090E00E94C32660E065
:1016000083E090E00E94C326109268031092690361
:1016100010926A0310926B0360E084E090E00E94F5
:10162000C32660E081E290E00E94C32660E085E08E
:1016300090E00E94C32660E086E090E00E94C3260E
:101640006FEF87E090E00E94C32640E050E0BA01CF
:1016500088E090E00E94D52660E08DE090E00E9456
:10166000C32640E050E0BA0188E190E00E94D52610
:1016700060E087E190E00E94C32640E050E0BA01BC
:101680008CE190E00E94D52660E080E290E00E942C
:10169000C326109272031092730310927403109277
:1016A000750384E0806180937203409172035091CE
:1016B000730360917403709175038FE090E00E9452
:1016C000D52640E050E0BA0183E190E00C94D526A5
:1016D0001092660380912301EAE2F2E0882359F038
:1016E0008091840387FF07C08EE1DF011D928A95F8
:1016F000E9F70C94AD0586E0F8CF1F93CF93DF9305
:10170000CDB7DEB7AA970FB6F894DEBF0FBECDBF38
:1017100086EE93E02091F100FC012193CF01F3E0EC
:101720008E3E9F07B9F78091E703833009F46FC0BD
:10173000B8F4813009F446C0823009F4B0C0809119
:10174000E80083FF87C28091E6039091E7039A3017
:1017500008F080C2E92FF0E0E659F84D0C94152509
:101760008A3009F48BC08B3009F46EC0893039F7A8
:101770008091E603813219F78091EA039091EB039F
:101780000297E8F68091E800877F8093E8008091D7
:10179000E80082FF37C09091F3008091F200029739
:1017A00029F48091F1008B7F813021F48091F10048
:1017B0008093C1038091E8008B778093E8000E94BA
:1017C0003703BDCF8091E603813A09F0B8CF80910D
:1017D000E800877F8093E8008091EA039091EB0313
:1017E000892B61F460E282EC93E070E00E94E903EF
:1017F0008091E8008B778093E800A1CF60E090E0D3
:1018000080E0F3CF8091E4038111C1CF98CF809124
:10181000E603813A09F093CF8091EA039091EB03BC
:10182000892B09F08CCF8091E800877F8093E800B6
:101830008091E80080FFFCCF809123018093F1002C
:101840008091E8008E77B9CF8091E603813209F06C
:1018500076CF8091EA039091EB03892B09F06FCF4B
:101860008091E800877F8093E8000E943703809191
:10187000E803809323010E94680B61CF8091E60307
:10188000813209F05CCF8091E800877F8093E80087
:101890000E9437038091E9038093C00350CF809169
:1018A000E603813A09F04BCF8091E800877F80936F
:1018B000E8008091E80080FFFCCF8091C003BECF9C
:1018C000803899F0823809F0C5C18091EA038F70A1
:1018D000873008F0BFC18093E9008091EB0085FB61
:1018E000882780F91092E90006C08091E203909168
:1018F000E303911182609091E800977F9093E80054
:101900008093F1001092F1008091E8008E779EC1E3
:10191000882309F48CC1823009F09CC18091E803CE
:1019200081118FC18091EA038F702FEF280F26302D
:1019300008F090C18093E9002091EB0020FF81C165
:10194000933031F48091EB0080628093EB0079C199
:101950009091EB0090619093EB0021E030E001C0AA
:10196000220F8A95EAF72093EA001092EA0080910C
:10197000EB008860EACF81116DC11091E8031F77F9
:101980008091E3008078812B8093E3008091E800D0
:10199000877F8093E8000E9437038091E80080FFF2
:1019A000FCCF8091E30080688093E30082E0111116
:1019B00083E08093E4034EC18058823008F04AC12E
:1019C0008091E8039091E9038C3D23E09207A1F513
:1019D00083E08A838AE289834FB7F894DE01139605
:1019E00020E03EE051E2E32FF0E050935700E49115
:1019F00020FF03C0E295EF703F5FEF708E2F90E005
:101A0000EA30C0F0C7968D939D932F5F243159F72C
:101A10004FBF8091E800877F8093E8006AE270E022
:101A2000CE0101960E94E9038091E8008B778093B4
:101A3000E80010C1C096E7CF4091EA035091EB0354
:101A4000292F33272330310509F445C078F521309B
:101A5000310509F47BC08BE390E0E3ECF4E0223045
:101A6000310509F0F7C02091E800277F2093E800B6
:101A70002091EC033091ED038217930708F49C0149
:101A800040E02115310509F070C041116EC0809110
:101A9000E80082FDC9CF8091E403882329F28530D4
:101AA00019F28091E80083FFF2CFBECF21323105D9
:101AB00009F440C02232310509F0CCC0411551056E
:101AC00009F44EC04130510509F0C4C08DE690E0E4
:101AD000E6E1F4E0C8CF992781309105D9F000976D
:101AE00071F082309105F1F0039709F0B3C0E0E1A5
:101AF000F5E0E4918E2F90E0E0E1F5E007C0E8E347
:101B0000F5E0E4918E2F90E0E8E3F5E0009709F42A
:101B1000A1C0A9CFEEE2F5E0E4918E2F90E0EEE2D5
:101B2000F5E0F4CFE6E1F5E0E4918E2F90E0E6E118
:101B3000F5E0ECCF4115510571F04130510509F048
:101B400089C089E090E0EEEEF4E08DCF82E190E094
:101B5000EEEFF4E088CF89E090E0E5EDF4E083CFAC
:101B600080E490E0E3E8F4E07ECF8091E403882312
:101B700009F45ACF853009F457CF8091E80083FDEE
:101B800053CF8091E80082FD82CF8091E80080FFF2
:101B900078CF9091F3008091F2002115310519F072
:101BA0008830910550F041E0089709F040E08091BD
:101BB000E8008E778093E80064CF44914093F10071
:101BC0003196215031090196E8CF803809F042C0A2
:101BD0008091E800877F8093E8008091E5038093FF
:101BE000F10092CE811136C01091E803123090F5C9
:101BF0008091E800877F8093E8001093E5030E94BE
:101C00003703112311F084E005C08091E30087FDC4
:101C1000FACF81E08093E40342E061EC81E00E942E
:101C2000560342E261EC82E00E94560313C08091A9
:101C3000E803813079F481E0933009F080E080930B
:101C4000E3031092E9008091E800877F8093E80029
:101C50000E9437038091E80083FF0AC08091E8006A
:101C6000877F8093E8008091EB0080628093EB0097
:101C7000AA960FB6F894DEBF0FBECDBFDF91CF910D
:101C80001F910895CF93C82F873070F58091170169
:101C900090911801892B89F564E670E080E40E9438
:101CA00020249093180180931701892BD1F464E6C6
:101CB00070E082E10E947C249093180180931701C8
:101CC000892B79F481E090E001C0880FCA95EAF78A
:101CD00064E670E080950E947C24909318018093C4
:101CE0001701CF910C94CF248A30B9F040F488309A
:101CF00071F0893079F0209A2898CF9108958C302E
:101D000091F070F08D30B9F73E9A4698F6CF219A4F
:101D10002998F3CF229A2A98F0CF239A2B98EDCFC7
:101D2000529A5A98EACF539A5B98E7CFCF93DF93B2
:101D30008091A60380FD0BC0E2E5F2E011821082E3
:101D400012821382349652E0EE38F507B9F7C2E5F5
:101D5000D2E0FE01928120813181892F291708F478
:101D6000822F381708F4832F8383381B3183281B75
:101D70002083981B9283349682E0EE38F80751F75F
:101D80000E941A2464E670E084E80E94202464E63D
:101D900070E088810E947C2464E670E089810E9462
:101DA0007C2464E670E08A810E947C2464E670E012
:101DB0008B810E947C24249692E0CE38D90739F793
:101DC0000E94CF24579A3BB13F772BB120684FB781
:101DD000F89482E592E0FC015191CF0168E02BB9C3
:101DE000000000C057FF3BB9550F000000C000C005
:101DF00000C03BB900C06A9591F7F2E08E389F07AA
:101E000051F74FBF8FE594E00197F1F700C0000054
:101E1000DF91CF9108958F929F92AF92BF92CF9210
:101E2000DF92EF92FF920F931F93CF93DF93FC010A
:101E3000B280948081E08483CEE8D2E002E512E0B3
:101E40008BE4A82E88248394EE24EA94F12C2BE4CE
:101E5000C22ED12C91101DC01B821A8298014A817A
:101E6000698188810E94850625960C5F1F4F82E05C
:101E7000C93DD80779F7DF91CF911F910F91FF905E
:101E8000EF90DF90CF90BF90AF909F908F900C9489
:101E9000960E2B81222309F121502B833C818A2D20
:101EA000821B311101C0822F9091A903899FC0012B
:101EB0001124B6010E94ED246A83211104C033234A
:101EC00011F01C82AB8222E02B1540F28091A70317
:101ED00088838091A8038983C1CF0E9467258230BF
:101EE00091400CF0BBCF82E08B15C0F40E946725B7
:101EF000B7010E940125888322E02B1590F40E94EF
:101F000067252091A8032695622F70E00E94012585
:101F1000280F29831A82AB828C82A0CF8091A703DD
:101F2000EACF2091A803F5CFEF92FF921F93CF93B2
:101F3000DF93EC0182E5E82E82E0F82E10E08C8140
:101F400097014091A9036091A803810F0E94850623
:101F50001F5E84E0E80EF11C1F3F89F70E94960E79
:101F60009A818C8190FF08C08F5F8C83DF91CF9125
:101F70001F91FF90EF9008958150F7CFBF92CF92BD
:101F8000DF92EF92FF920F931F93CF93DF93FC01A9
:101F90008281DD24DA9480FD02C0DD24D39402E541
:101FA00012E0D0E0C0E02FE0B22EF80111821082E2
:101FB0001282138294E0E92EF12CC12C80914F0201
:101FC0008C0D80310CF43DC06B2D0E94DF24892FD5
:101FD000082E000C990B8C179D0791F48091A90392
:101FE0008E9DA0018F9D500D1124559547955595B7
:101FF000479598016091A8038091A7030E948506E8
:10200000CD0CF1E0EF1AF108C9F621960C5F1F4FD5
:10201000CF30D10551F60E94960E80914F0291E08B
:10202000D91215C0811111C08EE080934F02DF914B
:10203000CF911F910F91FF90EF90DF90CF90BF90C5
:10204000089587FFC5CF815FC3CF8150EECF90E069
:102050000196BE010E940125E8CF0F931F93CF93F5
:10206000DF93C2E5D2E0FE01118210821282138258
:10207000349682E0EE38F807B9F710E000E080917E
:102080005002082E000C990B081719078CF180914B
:102090001601082E000C990B801791074CF19E0138
:1020A0004091A9036091A8038091A7030E9485062F
:1020B0000F5F1F4F24960F30110509F70E94960EEF
:1020C0008091150190915002980F909350022091A9
:1020D0001601280F20931601121614F49E301CF0DE
:1020E000819580931501DF91CF911F910F910895F4
:1020F000198218821A821B82DBCFEF92FF920F9314
:102100001F93CF93DF93EC018C819D8101968170A9
:1021100099279D838C8382E5E82E82E0F82E10E0DB
:1021200005E5812F86952C813D81820F932F911D8E
:10213000817097014091A9036091A803809F802D31
:1021400011240E9485061F5F84E0E80EF11C1F30F9
:1021500041F7DF91CF911F910F91FF90EF900C9479
:10216000960EEF92FF920F931F93CF93DF938C0104
:10217000C2E5D2E0F12CE12CF80194816091A80332
:102180008091A703F7E0EF16F104FCF49923F9F02E
:102190009E014091A9030E9485062FEFE21AF20AE0
:1021A00024968FE0E816F10439F70E94960EF801A4
:1021B000848190E00196817099278483DF91CF918B
:1021C0001F910F91FF90EF900895992309F39E01BD
:1021D00040E0E1CF9091A60390FF0DC0E2E5F2E070
:1021E0008183608342831382349692E0EE38F9074C
:1021F000B9F70C94960E08950F931F93CF93DF9326
:1022000000D000D0CDB7DEB78C0180915102811192
:102210000AC09E012F5F3F4F4FEF6FEF0E94850670
:102220008A8180935102F8016481613069F0809164
:10223000510240E0662361F040E0623011F44091C9
:10224000510280E060E004C06091510240E080E013
:102250000E94EA10F801848190E0019663E070E04A
:102260000E94012584830F900F900F900F90DF91B3
:10227000CF911F910F910895CF93DF9300D000D09D
:10228000CDB7DEB79091A60390FF0AC09E012F5FE5
:102290003F4F0E9485064B8169818A810E94EA1026
:1022A0000F900F900F900F90DF91CF910895CF93E3
:1022B000DF93EC01EC81F0E0EF54FE4F4491E6EA4D
:1022C000F3E0628181810E943C118C818F5F8C835D
:1022D000DF91CF910895CF93DF93EC01E6EAF3E02D
:1022E000438162818C810E943C118C818F5F8C8341
:1022F000DF91CF9108955F926F927F928F929F921C
:10230000AF92BF92CF92DF92EF92FF920F931F9303
:10231000CF93DF9300D000D0CDB7DEB7182F762E45
:10232000042F622E9091A60390FF29C0E92FE69515
:10233000AE2FB0E0AC5DBE4F8C918093AB039E7F1F
:10234000923089F59E012F5F3F4F812F0E948506B5
:102350004B8169818A810E94EA101093A7037092D1
:10236000A8030093A903662051F06091A603709121
:10237000A7038091A8039091A9030E94B10A0F902E
:102380000F900F900F90DF91CF911F910F91FF90C1
:10239000EF90DF90CF90BF90AF909F908F907F9005
:1023A0006F905F900895823019F40091A903D5CF02
:1023B000863019F41091A703D0CF8930D9F3893131
:1023C00061F6E9518E2F8170582EE695F0E0E455C4
:1023D000FE4FA590B490BB2482E5E82E82E0F82E53
:1023E000D12CC12C9FE0892E912CC601B4010E94F2
:1023F000ED24812F511013C0860F9701402F672DB8
:102400000E948506CA0CDB1C84E0E80EF11C8EE8F5
:10241000E81682E0F80649F70E94960E9ECF861BCA
:10242000ECCFE6EAF3E043812CE0421B08F440E005
:1024300021E0628181810C947B11E6EAF3E0438123
:102440002CE0420F08F44FEF21E0628181810C946F
:102450007B11E6EAF3E062812FEF621B08F460E093
:1024600021E0438181810C947B11E6EAF3E06281F3
:102470002FEF620F08F46FEF21E0438181810C940C
:102480007B11E6EAF3E0818121E0438162818C5097
:102490000C947B11E6EAF3E0818121E043816281C3
:1024A000845F0C947B11E6EAF3E080818E7F808369
:1024B00060817181828193810E94B10A1092AC0384
:1024C0002FEF80E792E0215080409040E1F700C07C
:1024D00000000C94960E80E290E090931801809397
:1024E000170180914E0281110EC00E941A2481E0D2
:1024F00080934E022FEF83ED90E321508040904077
:10250000E1F700C0000064E670E080E40E9420244F
:102510009093180180931701892B09F04EC064E64F
:1025200070E080E00E947C24909318018093170152
:10253000892B09F042C064E670E080E00E947C24B0
:102540009093180180931701892BB9F564E670E028
:102550008FE30E947C249093180180931701892BAC
:1025600061F50E94CF2464E670E080E40E9420249C
:102570009093180180931701892BF9F464E670E0B9
:102580008CE00E947C249093180180931701892B82
:10259000A1F464E670E080E00E947C24909318012E
:1025A00080931701892B49F464E670E08FE30E9461
:1025B0007C2490931801809317010E94CF2480916E
:1025C00017010895CF93873008F040C0809117011C
:1025D00090911801C0E0892B71F464E670E080E40A
:1025E0000E9420249093180180931701892B31F0C9
:1025F000C0E00E94CF248C2FCF91089564E670E054
:1026000083E10E947C249093180180931701892B09
:1026100079F764E670E081E40E9420249093180129
:1026200080931701892B21F784E690E00E94AB2468
:1026300097FF05C09093180180931701D9CFC82F39
:10264000C0951092180110921701D3CFCFB18FB15E
:10265000869586958C73C3708C2BC82FC095CBCF75
:102660001F920F920FB60F9211242F933F934F9307
:102670005F936F937F938F939F93AF93BF93CF930A
:10268000DF93EF93FF93D091E900DF708091EC002E
:10269000C82FC17080FDC0E81092E9008091F00061
:1026A000877F8093F00078940E947D0B1092E90060
:1026B0008091F00088608093F000CD2BCF70C093A4
:1026C000E900FF91EF91DF91CF91BF91AF919F9181
:1026D0008F917F916F915F914F913F912F910F90CB
:1026E0000FBE0F901F90189578941F921FB61F92DF
:1026F00011248F939F93AF93BF9380919C039091EC
:102700009D03A0919E03B0919F030196A11DB11D51
:1027100080939C0390939D03A0939E03B0939F038B
:10272000BF91AF919F918F911F901FBE1F901895E1
:102730002FB7F89480919C0390919D03A0919E03E4
:10274000B0919F032FBF08951F93CF93DF93C62FA0
:10275000D42F122FFC018281882399F06093EF021D
:102760000E9498139093DA028093D902C77081E097
:1027700001C0880FCA95EAF7DF91CF911F910C94A1
:1027800077058091EF02861340C02091D9023091E5
:10279000DA029FB7F89440919C0350919D03609199
:1027A0009E0370919F039FBF421B530B483C5105F2
:1027B00060F5C0E2CD0F8D17C1F090E2980F983010
:1027C00048F4877091E001C0990F8A95EAF7892F44
:1027D0000E946C05C83048F481E09D2F977001C0BD
:1027E000880F9A95EAF70E947705812F0E94160AB2
:1027F000C83090F4D77081E001C0880FDA95EAF70D
:10280000DF91CF911F910C946C05C77081E001C0DE
:10281000880FCA95EAF7F4CFDF91CF911F91089501
:102820006091A603669570E04BE050E08AE091E08D
:102830000E94A226892B19F481E08093AC030E94A8
:1028400098139093A1038093A00308959091A603F9
:1028500090FF36C09170811129C092609093A603B9
:10286000662351F06091A6037091A7038091A8039D
:102870009091A9030E94B10A6091A603669570E049
:102880004BE050E08AE091E00E94A226892BA9F05B
:102890001092AC0381E08093A30320E04091A90350
:1028A0006091A8038091A7030C947B118B3210F0E8
:1028B0009465D4CF880F982BD1CF0E941014EACF03
:1028C0000895E6EAF3E080818160808360E0869588
:1028D0000C9426141F920F920FB60F9211242F936F
:1028E0003F934F935F936F937F938F939F93AF9398
:1028F000BF93EF93FF938091E10082FF09C0809125
:10290000E20082FF05C08091E1008B7F8093E100AF
:102910008091DA0080FF24C08091D80080FF20C021
:102920008091DA008E7F8093DA008091D90080FF59
:10293000A8C080E189BD82E189BD09B400FEFDCF58
:1029400081E08093E4038091BD03811109C00E945E
:10295000BD020E9488038091E20084608093E200BF
:102960008091E10080FF17C08091E20080FF13C0DA
:102970008091E2008E7F8093E2008091E20080618E
:102980008093E2008091D80080628093D80019BCC7
:1029900085E08093E4038091E10084FF36C080915C
:1029A000E20084FF32C080E189BD82E189BD89B542
:1029B000982F917080FFFBCF8091D8008F7D8093FE
:1029C000D8008091E1008F7E8093E1008091E20049
:1029D0008F7E8093E2008091E20081608093E2002C
:1029E0008091E503882309F452C084E08093E403D6
:1029F0000E94680B0E9465061092BF038091BE037F
:102A000081110E9461140E9410148091E10083FFE3
:102A100027C08091E20083FF23C08091E100877F7F
:102A20008093E10082E08093E4031092E5038091BB
:102A3000E1008E7F8093E1008091E2008E7F8093A1
:102A4000E2008091E20080618093E20042E060E079
:102A500080E00E9456038091F00088608093F0002F
:102A6000FF91EF91BF91AF919F918F917F916F9166
:102A70005F914F913F912F910F900FBE0F901F903C
:102A8000189519BC1092E4031092BD0369CF809190
:102A9000E30087FD93E09093E403AACF61E00C94F8
:102AA0002614E6EAF3E080818160808386950C94A9
:102AB0004E158091A6038695815009F48AE261E063
:102AC0000C9426148091A60386958F5F8B3208F0B4
:102AD00081E061E00C9426149091A60390FF07C05A
:102AE0009695981720F0961710F40C9462150C9494
:102AF0004E15CF92DF92EF92FF92CF93DF936B014F
:102B00007C01C701AA27BB27C0E10097A105B10539
:102B100019F4D701CB01C0E0492F5A2F6B2F77272B
:102B2000411551056105710519F0C85FDB01CA0146
:102B3000AC01BD01E4E07695679557954795EA9518
:102B4000D1F7411551056105710519F0CC5FDB0125
:102B5000CA01AC01BD0132E076956795579547955E
:102B60003A95D1F7411551056105710519F0CE5F10
:102B7000DB01CA01B695A79597958795892B8A2B76
:102B80008B2B09F0CF5F0E9470090E946D090E9493
:102B90006A090E946709D091ED02EFEFEC0FE73070
:102BA00008F041C0F0E0EC58F84D0C9415250E9457
:102BB0007909D1114BC00E94611460E081E00E944C
:102BC000261420E04FEF6FEF81E23EC00E947909AA
:102BD0000E947609D1113AC088E090E00E94B726A1
:102BE0006093A6037093A7038093A8039093A9030F
:102BF00060FF35C00E9451158091A60386950E9402
:102C00004E1521E04091A9036091A8038091A7038C
:102C10001BC00E9479090E947309DCCF0E947909C8
:102C20000E947609F8CFCC2319F0C13011F2D2CF2F
:102C3000D1110CC00E94611460E081E00E94261452
:102C400020E04FEF6FEF87E80E947B11C701B601CC
:102C5000DF91CF91FF90EF90DF90CF9008950E9489
:102C60005312F4CF0E947915609387037093880301
:102C70008093890390938A030C94AD050F931F935F
:102C800041E050E060E070E004C0440F551F661F53
:102C9000771F8A95D2F7CB01BA0160957095809520
:102CA00090950091870310918803209189033091BA
:102CB0008A0360237123822393231F910F910C9425
:102CC0003216909163038095892380936303282FA4
:102CD000277071F4282F082E000C330B921713065F
:102CE00039F08595859585950E943E16109263036F
:102CF00008950F931F9341E050E060E070E004C03E
:102D0000440F551F661F771F8A95D2F7809187035E
:102D100090918803A0918903B0918A038A019B0155
:102D2000082B192B2A2B3B2BC901B8011F910F919E
:102D30000C9432164F925F926F927F928F929F9275
:102D4000AF92BF92CF92DF92EF92FF920F931F93B9
:102D5000CF93DF9300D000D00F92CDB7DEB76C01D8
:102D6000FC0183819481892B39F01081F180812FBE
:102D70008F218F3F09F0A9C60F900F900F900F90F1
:102D80000F90DF91CF911F910F91FF90EF90DF9007
:102D9000CF90BF90AF909F908F907F906F905F90FB
:102DA0004F9008950E94F708082F682F89819A8113
:102DB0000E941F05E12FF0E026E0F29EE00DF11DDC
:102DC000112434E5039FE00DF11D1124EE0FFF1FC8
:102DD000EF54FD4F05911491F60182810930FDE514
:102DE0001F0709F09AC08823C9F18091720391E00E
:102DF000980F9770887F953008F4892B8093720321
:102E00008091720387702FEF829FC00111249595E6
:102E10008795959587959927909389008093880049
:102E200090938B0080938A0090938D0080938C0008
:102E30004091720350917303609174037091750314
:102E40008FE090E00E94D5266091870370918803FF
:102E50008091890390918A030E947915F6018281FD
:102E6000882309F4C9C09801215E3C45253031050D
:102E700008F0C2C06FE1600F60936E038CE090E0D9
:102E80000E94C326F6019281992309F446C6109246
:102E9000EF020230FCE51F0708F428C606312CE5D6
:102EA000120738F098012A5F3C452730310508F0B9
:102EB0001DC60E94A30A90938503809384030F305C
:102EC0003CE5130709F403C208F07DC108309CE516
:102ED000190709F4E6C108F052C10430FCE51F07E8
:102EE00009F4D3C108F038C102303CE5130709F4F6
:102EF000C4C103301C4509F4C4C16091840310911E
:102F0000850384E090E00E94C326612F81E290E077
:102F10000E94C3260E94680B33C00C303DE51307A6
:102F200009F450C078F40A30EDE51E0709F10B30C2
:102F3000FDE51F0709F092CF882311F181E00E947F
:102F40004E151EC00D302DE5120709F449C00E3094
:102F50003DE5130709F082CF882391F00E945115B7
:102F600081E00E944E1521E04FEF6FEF8BE135C0FD
:102F7000882331F08091ED0291E089278093ED0262
:102F800080916303877009F4F7CEF601828188236C
:102F900009F4F2CE82E00F900F900F900F900F90F7
:102FA000DF91CF911F910F91FF90EF90DF90CF9025
:102FB000BF90AF909F908F907F906F905F904F9059
:102FC0000C9461168823E1F20E94511581E00E9461
:102FD0004E1521E04FEF6FEF8CEA0E947B11D0CFAE
:102FE000882371F20E94511581E00E944E1521E064
:102FF00040E86FEF86E5F1CF17FF74C0882309F42E
:1030000041CF809166038093EE0210926603809117
:103010006E03813009F441C08823D9F1823009F46C
:1030200049C0843009F44DC08FE39CE90197F1F762
:1030300000C000005801E894B7F8ECE0EE2EF12C47
:1030400095010E2C02C0369527950A94E2F72F7051
:1030500087E290E029F0822F90E02A30B8F54D9673
:103060000E94160A94E0E91AF108ECEFEE16EFEF71
:10307000FE0631F780916E03813071F1882341F1B2
:10308000823031F1843061F18091EE0280936603E9
:10309000F9CE82EE0E94F705C7CF83E00E94620559
:1030A00088E10E94F70588E10E94C50583E00E943F
:1030B0005705BACF82EE0E94F70587E50E94160AEF
:1030C000B3CF86EE0E94160A88E1F8CF0697C8CFE4
:1030D00082EE0E94C505D8CF8CE20E94160AD4CF9A
:1030E00088E2FBCF033FFCE51F0739F1A0F4083D60
:1030F0003CE51307F1F0093D8CE5180751F1073D58
:103100009CE5190709F0BECE26E241EE61EEC6014C
:103110000E94A41335CF053FECE51E07B1F088F0FF
:10312000063F2CE5120709F0ADCE27E245EE66EE2C
:10313000EECF27E245EE65EEEACF26E241EE60EE05
:10314000E6CF27E245EE64EEE2CF26E241EE62EE04
:10315000DECF28E241E0EFCF80918403806106302A
:103160009CE5190709F447C0809184038860073003
:103170001C4508F440C08091840380623CC00B3041
:10318000FCE51F0709F49BC068F409303CE5130710
:1031900009F48BC00A301C4509F0AFCE809184033E
:1031A0008C6029C0809184038B7F0D309CE51907CA
:1031B00011F1809184038D7F0E301C45E0F08091E9
:1031C0008403877F18C00A3FFCE51F0709F461C02C
:1031D00060F502313CE5130709F481C078F4003151
:1031E0009CE5190709F477C0809184038F7B013136
:1031F0001C4509F082CE809384037FCE0431FCE528
:103200001F0709F47AC008F470C005311C4509F0A5
:1032100074CE8091840382FB992790F921E0922754
:1032200090FB82F990FB83F9E6CF0D3F8CE5180700
:1032300009F449C070F40B3FECE51E0771F1809171
:1032400085038E7F0C3F1C4509F057CE8093850384
:1032500054CE0F3F2CE5120709F44BC060F1011565
:103260001D4509F04ACE80918503982F9095917065
:103270008E7F892B90FB81F9E9CF80918403816057
:10328000BACF809184038260B6CF8091840384603A
:10329000B2CF809185038160D9CF80918503826010
:1032A000D5CF809184038064A6CF0E94680B809163
:1032B00084038068A0CF809185038360C7CF80910D
:1032C00084038E7F98CF809185038D7FBFCF8091BF
:1032D00084038F7E90CF809184038F7D8CCF0E945A
:1032E000680B809184038F7786CF80918403837FDE
:1032F00082CF809185038C7FA9CF0E94680B90912B
:103300008403892F97FB87F9805875CF992309F497
:103310006DC0809166038272F801E25CFC45E43185
:10332000F10508F05AC0E558F84D0C941525809128
:10333000A60380FF03C00E94531222CE0E945115A3
:103340001FCE49E555E162E675E10E94710618CE8F
:1033500042E655E169E575E1F8CF41E452E16AE4FE
:1033600072E1F3CF4AE452E161E472E1EECF49E267
:1033700052E165E372E1E9CF45E352E169E272E1CE
:10338000E4CF41E152E16DE172E1DFCF4DE152E185
:1033900061E172E1DACF44ED5AE063EC7AE0D5CF37
:1033A00043EC5AE064ED7AE0D0CF65E082E00E9421
:1033B0006C15E6CD68E086E0FACF6EE089E0F7CFE5
:1033C00064E18FE0F4CF67E185E1F1CF88E1B7CD2B
:1033D00062E289E1ECCF83E2B2CD0115ECE51E0794
:1033E00009F44EC00E3D1C4509F487C0F60100816A
:1033F0001181992309F484C0C8010E94F708F82EAE
:10340000682FC8010E941F05B8018F2D0E945F0719
:10341000082FF92EB82EF601E580E2947FE0E7222E
:103420001281111110926503809163038770C1F0BE
:103430001123B1F08F2D807F803449F090E2900FFE
:10344000983070F0803619F4F6EFBF1649F082E03C
:103450000E946116809163038770AA24A39481114E
:10346000A12C9F2C92945FE095226BE0462E49148C
:1034700008F481C0E92DF0E0E157F84D0C941525D2
:103480000E94680B2FEF34E38CE0215030408040E5
:10349000E1F700C00000F89481E08093E00080E252
:1034A0008093D8001092C900EFE1FEE43197F1F764
:1034B00000C000001DBA109268001CBC10BE1FBAEC
:1034C00010927A0010926E0010926F0010927100AC
:1034D000109272001092C9001092BC0014B817B874
:1034E0001AB81DB810BA1092BC0015B818B81BB89D
:1034F0001EB811BA0C94003F43CD0E94F40A40CD8F
:10350000C8010E94F604F82E7FCF2F2D2F70E22ED7
:103510008F2D807F19F0E29440EFE4221123C9F04F
:10352000EE2069F080E2800F883010F0B1100BC0FF
:1035300080916603E82AE09266030E94B104802F1E
:103540000E94F70518C080916503E82AE0926503A0
:10355000F4CF802F0E94C505EE2069F0E094005E54
:10356000083010F0B11057C080916603E822E09255
:1035700066030E94B104292D2850330B24303105F5
:1035800010F40E946506112379F08F2D807F80361C
:1035900019F436EFB31641F08091F102823009F050
:1035A0008CC283E08093F102AA20A9F0809163038A
:1035B00080FD11C0F60112828595859585950E9442
:1035C0007916C6010E949A168091630385958595A8
:1035D00085950E943E1685E0F601DE011196019068
:1035E0000D928A95E1F789819A810E94F6049A8169
:1035F000E981F0E026E0929FE00DF11D112434E511
:10360000839FE00DF11D1124EE0FFF1FEF54FD4FBE
:1036100085919491B1CB80916503E822E092650396
:10362000A8CF3F2D3F70832E8F2D807F803219F0E1
:10363000829430EF8322BB2041F081E0B81631F153
:10364000112381F1EE2049F17ACF112391F090916D
:103650006703892F8829E11003C00E9477058BCF6B
:10366000E1E0EE12FACF981709F485CF8093670353
:1036700082CFE11006C00E94AB04882D0E946C0529
:103680007ACFF1E0EF1609F476CFF5CF112339F0B8
:10369000442443944E1408F46ECF882DDECFE110FD
:1036A0006ACFEBCFEE2049F329E3522EB51009C0C3
:1036B0002FEF37EE83E0215030408040E1F700C02B
:1036C0000000802F0E94C50556CF8F2D86958695C8
:1036D000837069F0813009F04ECF802F9F2D937059
:1036E000111102C090E080E00E94810544CF802F3C
:1036F0009F2D9370111102C090E080E00E94970509
:103700003ACF8F2D837009F067C0111134CF202F6D
:10371000229526952770220F220F402F4F7050E0E0
:1037200070E060E0022E04C0440F551F661F771F33
:103730000A94D2F780E090E0DC0104FF0FC08FE034
:1037400090E0A0E0B0E004C0880F991FAA1FBB1F43
:103750002A95D2F780959095A095B0952F2D269516
:1037600026952370223029F1D8F4409068035090B8
:10377000690360906A0370906B03213069F0842BB9
:10378000952BA62BB72BBC01CD0164217521862179
:1037900097210E94BB05EFCE442955296629772938
:1037A0002A013B01482A592A6A2A7B2AC301B2010D
:1037B000F0CF842B952BA62BB72B4090680350900D
:1037C000690360906A0370906B03BC01CD016425AE
:1037D000752586259725DDCF8695112311F08F2D30
:1037E0008170882309F4C7CE202F22952695277053
:1037F000220F220F402F4F7050E070E060E0022E49
:1038000004C0440F551F661F771F0A94D2F780E04B
:1038100090E0DC0104FF0FC08FE090E0A0E0B0E09A
:1038200004C0880F991FAA1FBB1F2A95D2F7809545
:103830009095A095B0952F2D269526952370223032
:1038400029F1D8F440908703509088036090890351
:1038500070908A03213069F0842B952BA62BB72B0F
:10386000BC01CD0164217521862197210E94321669
:1038700082CE44295529662977292A013B01482A05
:10388000592A6A2A7B2AC301B201F0CF842B952BD7
:10389000A62BB72B40908703509088036090890334
:1038A00070908A03BC01CD01642575258625972576
:1038B000DDCF2F2D2F70E22E112329F0822F0E94B1
:1038C0007916802FCACE802F0E946C058E2D0E9403
:1038D0003E1651CE802F32EFB31609F452C03B157D
:1038E00078F090EFB91629F1E1EFBE1609F441C066
:1038F000112309F46AC0E11022CE8F2D8F713EC0D2
:10390000F3EFBF1609F442C094EF492EB410F0CF84
:10391000112309F44FC00F2D0F71802F0E947916CB
:1039200028E0029FC0011124836080936303802FED
:1039300025C01123C1F0E1101ECE2F2D2F7161E0A3
:1039400070E080E090E004C0660F771F881F991F29
:103950002A95D2F74090870350908803609089039E
:1039600070908A03A1CF552453945E1408F403CEBB
:10397000E4CF8F2D8F71112309F4A9CF0E947916FE
:10398000FACD8F2D8F711123C9F3A1CF60E070E0C4
:10399000CB01112309F46ACF2F2D2F7161E070E064
:1039A00080E090E004C0660F771F881F991F2A955A
:1039B000D2F75CCF81E00E94611631E03E1508F03D
:1039C000DACD82E00E946116D6CDEE2059F089331F
:1039D00009F077CE8FEF97EEE3E081509040E04022
:1039E000E1F76DCE8F2D8F7172CFE0E1E00FE73000
:1039F00008F03EC0F0E0E556F84D0C941525112373
:103A000009F4B9CD8091F30291E089278093F30204
:103A1000B2CD1093F302AFCD81E08127F7CF111122
:103A2000AACD81E0F3CF1111A6CD1092F302A3CD60
:103A3000112321F082E08093F102F3CF8091F10213
:103A4000823021F481E08093F10295CD833009F03A
:103A500092CD1092F102E9CF112339F08091F20258
:103A6000882381F21092F20286CDEE2059F283CDA6
:103A70008091F202EE20A9F0882341F08091F302B8
:103A800091E089278093F3021092F202802F1111A6
:103A900057CD0E94C50586E0F60111928A95E9F797
:103AA0006ACD882309F467CD111165CD8091F302A9
:103AB00091E089278093F302D5CF813009F074CD4E
:103AC0001092F1021092F3026FCD85E0DE011196A3
:103AD00001900D928A95E1F7F601228189819A8100
:103AE000211160C90E94F604082F64C90631FCE563
:103AF0001F0709F00BCC809166038A7A91E009F4E4
:103B000090E09093F00269E2811165E388E292E02F
:103B10000E9476040E94B10433CA06311C4509F0A4
:103B200065CC8091F00269E2811165E388E292E060
:103B30000E944C04EFCF1F93CF93DF938091F90243
:103B4000807FA9F48091F602882389F080912B036D
:103B5000D091FA026091F4027091F502A091F702FF
:103B6000B091F802C62FC72316E0D81304C0DF9126
:103B7000CF911F91089590E0109711F0CF3F19F465
:103B800001968770F2CF189F9001199F300D112474
:103B9000F901E550FD4F41814713F2CF40814613B3
:103BA000EFCF42814111ECCF438154814A1B5B0B23
:103BB000483C510528F78091F9028F70806180930D
:103BC000F902F901E050FD4F80818F7080618083A0
:103BD00084EF92E00E949A16DF91CF911F910C948E
:103BE0004D05AF92BF92CF92DF92EF92FF920F936B
:103BF0001F93CF93DF93CDB7DEB761970FB6F894DD
:103C0000DEBF0FBECDBF8C0185E0F801DE011D9641
:103C100001900D928A95E1F7F80180819181E2800F
:103C200024EFA22E22E0B22E6091F7027091F802EA
:103C30006115710509F43EC13091F4024091F5021D
:103C4000232F24232F3F09F435C1C380D480F09063
:103C5000F602F601E61BF70BFF2009F4FBC02091EA
:103C6000F902522F507FE83CF10508F0BBC051111A
:103C700078C0FE2C491321C038131FC0E1101DC0AD
:103C80002F7020612093F902C5010E949A1680913D
:103C9000F902F80185838F2D61960FB6F894DEBF87
:103CA0000FBECDBFDF91CF911F910F91FF90EF908D
:103CB000DF90CF90BF90AF900895CD2829F0282FA6
:103CC00029232F3F09F022C120E0F22FF170DF2ECF
:103CD00020FF3DC020912B034091FA0256E02413AF
:103CE00015C08D879E878D859E850E943909292F55
:103CF00022952F702230F8F0243020F59F70F9F0D3
:103D0000F8019581907FD9F4D12C1FC030E0529FEB
:103D1000F001539FF00D1124E550FD4F6181961382
:103D200006C06081861303C06281E61210C02F5F57
:103D30003F4F2770D4CF9F7011F0882329F3805E06
:103D4000883010F3C8010E949A16FD2CA4CFEE20F3
:103D500009F4A1CF8091F90281608093F902F12CDE
:103D60009ACF491312C0381310C0E1100EC0F801E9
:103D70002583C8010E949A1686E0F801A4EFB2E0FC
:103D800001900D928A95E1F786CF8D879E878D856C
:103D90009E850E944309882309F1EE20F9F0809165
:103DA000F902803270F02091F4023091F5023887E8
:103DB0002F831986DB86CA868C87CE0107960E94E0
:103DC0009A1686E0F801A4EFB2E001900D928A9570
:103DD000E1F70E949B1DFF24F3945DCFC8010E9470
:103DE0009A16F9CF51110AC084EF92E00E949A16F8
:103DF00086E0F50111928A95E9F7B1CF49130FC01A
:103E000038130DC0E1100BC0F8012583C8010E94D2
:103E10009A1686E0F50111928A95E9F73CCF8D87D5
:103E20009E878D859E850E9443098823B9F2EE20E6
:103E3000A9F28091F902803220F22091F4023091AF
:103E4000F5023A8329831B82DD82CC828E83CE01E8
:103E50000196B5CFE83CF105E0F6FE2CEE2009F422
:103E6000BDCF491316C0381314C08091F90280FDEC
:103E700083CF982F907F09F47FCFF8018583903FFF
:103E800009F477CF982F907F905F8F70892B85836F
:103E900070CF8D879E878D859E850E9443098111F5
:103EA00090CF8091F90281608093F902C8010E944D
:103EB0009A16F1CEEE2009F491CF8D879E878D85DD
:103EC0009E850E944309F82E882309F487CF86E057
:103ED000F801A4EFB2E001900D928A95E1F780918C
:103EE000F4029091F5020E94390992959F709630E4
:103EF00051F4863F41F08091F30291E0892780934D
:103F0000F3029093F2020E949B1DC5CE21E02E2564
:103F1000DCCE1F93CF93DF93CDB7DEB767970FB695
:103F2000F894DEBF0FBECDBF6D8B7E8B8F8B8E89DD
:103F30009F89892BE1F0852F84238F3F09F098C05A
:103F40005FEF4FEF14C03091F302332309F44EC0FA
:103F5000E42FF0E036E0539FE00DF11D1124EE0F49
:103F6000FF1FE15BFE4F40815181822B8C931A8AA7
:103F7000198A4B8B5C8B85E0FE017396DE011D96E2
:103F800001900D928A95E1F786E0FE013D96DE01F3
:103F9000179601900D928A95E1F7CE0107960E943F
:103FA000F11D811112C086E0FE013796DE011196E7
:103FB00001900D928A95E1F78A859B85892B29F0DE
:103FC0008F81988589238F3FC9F516E080912B0357
:103FD0009091FA02891320C067960FB6F894DEBF5D
:103FE0000FBECDBFDF91CF911F91089580958223A1
:103FF000BDCF96E0929FD001939FB00D1124A550A4
:10400000BD4FFE01319601900D929A95E1F7809394
:10401000FA020E944D05D9CF819FC001112485501D
:104020009D4F0E94F11D8823B9F280912B0390E0EF
:1040300001968770992780932B03C8CF2091FA02AD
:1040400030E0C90101968770992740912B034817EA
:10405000190679F60E94680B1092FA0210922B034F
:1040600086E0E4EFF2E0DF011D928A95E9F7ADCF3B
:1040700081E090E0042E01C0880F0A94EAF7A52F92
:10408000B0E0A152BD4F2C913D8931115CCF322F50
:1040900038235BCF8F929F92BF92CF92DF92EF92A5
:1040A000FF920F931F93CF93DF938091170190910D
:1040B0001801892B91F080914D028F5F80934D0202
:1040C00081110BC00E946B1290E0909318018093B5
:1040D0001701892B11F40E94290A26E7822E23E07A
:1040E000922E740100E010E097E0C92EC00E802FE0
:1040F0000E94420E8C2D0E94420E802F0E94E212DE
:10410000E70199917E01D12C891729F0FE013197A1
:104110008083DD24D3948C2D0E94E212F7019681D6
:10412000891709F47BC0868381E08D29182B0E94B2
:104130007C090F5F0730C1F60E9498136091490215
:1041400070914A0290934A0280934902209148025A
:1041500030E0261B370B820F931F6BEF70E00E943D
:10416000ED24E82E392F082F80934802F0904C025E
:10417000FF2009F45FC010924C02E0916C03F091B3
:104180006D03AF01425F5F4F20E08BEFB82E6BEF06
:1041900070E0A191AB3F99F0CA2ED12C8E2D932FB8
:1041A0000A17F0F18C199D09092E000CAA0BBB0B04
:1041B0004E97A105B105D0F1DF011197BC924E17C2
:1041C0005F0739F720934C02111102C0211134C04E
:1041D00010924B02A0916C03B0916D0390914C0230
:1041E000EEE8F3E04CE953E080E03191E4012991FD
:1041F0004E01321751F03C913B3FD1F40C93BF017B
:1042000061507109EB01288391E011964E175F0709
:1042100061F790934C0280934B0212C080E085CFEF
:10422000DB01AC19BD098A0F9B1FBECF2F2DC7CF55
:1042300081E0EBCF1111CCCF80914B028111C8CF1F
:10424000812FDF91CF911F910F91FF90EF90DF9021
:10425000CF90BF909F908F900895CDB7DEB72A97EB
:104260000FB6F894DEBF0FBECDBF84B7877F84BF83
:104270000FB6F894A89580916000886180936000E3
:10428000109260000FBE80E890E00FB6F894809323
:104290006100909361000FBE85B7806885BF85B7C8
:1042A000806885BF0E94BD020E9488038091E20061
:1042B00084608093E20078948091E4038823A1F0E5
:1042C0001091E9001F709091EC00892F817090FD92
:1042D00080E8182B1092E9008091E80083FD0E948D
:1042E0007D0B1F701093E90082E084BD93E095BDC3
:1042F0009AEF97BD80936E000E946B1290E09093AE
:104300001801809317010E947C090E948B09A6E77F
:10431000B3E01CE9E12E13E0F12EEEE8F3E0119298
:104320001D92EE16FF06D9F78EE090E00E947725E9
:1043300080936C0390936D03FC010E962BEF2193F9
:104340008E179F07E1F790E080E00E94BD268F3E28
:104350009E4F11F00E94F40A8CE090E00E94AF267C
:1043600090E0B0E0A0E080936E0390936F03A09381
:104370007003B093710389EA8093800089E0809391
:10438000810024982C983F988AB18F7C8AB96E98C6
:10439000479A8BB180638BB9769A8FE090E00E9448
:1043A000B7266093720370937303809374039093A2
:1043B000750367708FEF689FB0011124759567953D
:1043C000759567957727709389006093880070933F
:1043D0008B0060938A0070938D0060938C000E9424
:1043E000290A90E080E00E94BD268F3E9E4F11F08A
:1043F0000E94F40A82E090E00E94AF268093AE0310
:104400000E94A30A909385038093840383E090E045
:104410000E94AF26682F70E090E080E00E94BB050C
:1044200080918603811136C090E080E00E94BD2615
:104430008F3E9E4F21F00E94F40A0E94E50A88E018
:1044400090E00E94B7266093A6037093A703809321
:10445000A8039093A9036E7F71F40E94E50A88E097
:1044600090E00E94B7266093A6037093A703809301
:10447000A8039093A9030E9476061092AC03809142
:10448000A60380FF04C060E086950E94261481E0A8
:1044900080938603609187037091880380918903DC
:1044A00090918A030E94791589E191E090938C03A1
:1044B00080938B03A4E0CA2EA4E0DA2E8091E4035B
:1044C000853009F48CC00E944A20EFEAF3E0AEE8A0
:1044D000B3E010E000E0302F8D912191281709F40E
:1044E000EAC090E0BB24B3942827422F4B2109F463
:1044F000DDC099833A838B2191E009F490E09B839E
:104500000E9498138160782F9D838C8349815A8102
:104510006B818D810E94891FF801E155FC4F8081DC
:10452000B826B0828091AC03882309F44CC08091F6
:10453000AB03E091A603E695E81BE093A20382306B
:1045400009F0D0C0F0E0EE5EFB4FE4910E2F10E0DA
:10455000F7E5AF2EF1E1BF2E8091A303882389F008
:104560001092A3030E949813980120953095820F12
:10457000931F9093A1038093A0031092A503109220
:10458000A4032091A0033091A1034FB7F894809128
:104590009C0390919D03A0919E03B0919F034FBFF8
:1045A000821B930B8017910770F0E091A003F091AC
:1045B000A1030E0F1F1F1093A1030093A00380EA15
:1045C00093E0F50109950E9465069091AD03891766
:1045D00009F474CF0E9465068093AD036FCF80917C
:1045E000E403843009F441C010928D0388E190E027
:1045F00020E40FB6F894A895809360000FBE209336
:1046000060001092AC038091BF03811117C081E05C
:104610008093BF038091A603982F91709093BE035F
:104620008E7F8093A6032FEF80E792E02150804099
:104630009040E1F700C000000E94960E83B7817F92
:10464000846083BF83B7816083BF7894889583B784
:104650008E7F83BF0FB6F894A89580916000886123
:1046600080936000109260000FBE8091E303882366
:1046700009F424CF0E946B1290E09093180180936C
:1046800017010E947C090E948B09EEE8F3E0119269
:10469000EE16FF06E1F70E944A20EEE8F3E0819172
:1046A00081118BC0EE16FF06D1F708CF9F5FBB0CC0
:1046B000963009F01ACF0F5F1F4F0E30110509F029
:1046C0000ACF8FEF8E838F8318860E9498138160A4
:1046D000782F9A8789874E815F8168858A850E94B5
:1046E000891F20CF863059F4F0E0E15FFB4FE49161
:1046F0000E2F10E0EBE6AE2EE1E1BE2E2DCF89307D
:1047000061F4E695F0E0E45FFB4FE4910E2F10E0DA
:1047100074E9A72E7FE0B72E1FCF8F3061F4E695A6
:10472000F0E0E75FFB4FE4910E2F10E06EEBA62E5A
:104730006FE0B62E11CF853159F4F0E0EA5FFB4F00
:10474000E4910E2F10E05DE2A52E50E1B52E04CFCE
:1047500008EE13E02DE7A22E20E1B22E883109F4F5
:10476000FBCE833241F4F601059114914CEFA42E57
:1047700040E1B42EF1CE04EF11E091EBA92E90E1CF
:10478000B92E843209F4E8CE853281F48E2F63E0AD
:104790000E94D324E92FF0E0EF5FFB4FE4910E2F4E
:1047A00010E03BE0A32E3FE0B32ED6CE00ED17E0A5
:1047B00087E4A82E84E0B82ECFCE80E189BD82E1C7
:1047C00089BD09B400FEFDCF8091D8008F7D809314
:1047D000D8008091E00082608093E0008091E0004A
:1047E00081FDFCCF6BCE1F921FB61F9211248F93B9
:1047F0009F93AF93BF9380918D03811113C08091DC
:104800009C0390919D03A0919E03B0919F034196BC
:10481000A11DB11D80939C0390939D03A0939E03C3
:10482000B0939F03BF91AF919F918F911F901FBE37
:104830001F9018951092B9008CE08093B8000895ED
:10484000EF92FF920F931F93CF93DF93182FEB01FB
:104850001092BC0084EA8093BC000E9498137C01F3
:104860008091BC0087FF27C08091B900887F883085
:1048700029F08091B900887F8031D9F51093BB0071
:1048800084E88093BC000E9498138C018091BC0046
:1048900087FF24C02091B900287F90E080E0283174
:1048A000B1F081E090E0203411F490E080E0919547
:1048B000819591090CC0CF3FDC0791F20E949813BB
:1048C0008E199F098C179D0758F28EEF9FEFDF918D
:1048D000CF911F910F91FF90EF900895CF3FDC078C
:1048E000A9F20E949813801B910B8C179D0770F200
:1048F000ECCF8FEF9FEFEBCF0F931F93CF93DF930F
:10490000EB018093BB0084E88093BC000E94981365
:104910008C018091BC0087FF11C02091B900287FD5
:1049200081E090E0283211F490E080E0919581954B
:104930009109DF91CF911F910F910895CF3FDC072F
:1049400041F30E949813801B910B8C179D0708F36D
:104950008EEF9FEFEECF0F931F93CF93DF93EC017A
:1049600084E88093BC000E9498138C018091BC0065
:1049700087FF08C08091BB0090E0DF91CF911F912D
:104980000F910895CF3FDC0789F30E949813801B95
:10499000910B8C179D0750F38EEF9FEFEECF84E9BC
:1049A0008093BC000895991B79E004C0991F961765
:1049B00008F0961B881F7A95C9F78095089587FBA4
:1049C000082E062687FD819567FD61950E94D324F8
:1049D0000EF4919507FC81950895AA1BBB1B51E12C
:1049E00007C0AA1FBB1FA617B70710F0A61BB70B5F
:1049F000881F991F5A95A9F780959095BC01CD0104
:104A0000089597FB072E16F4009407D077FD09D080
:104A10000E94ED2407FC05D03EF4909581959F4FB0
:104A20000895709561957F4F0895EE0FFF1F0590D3
:104A3000F491E02D09948F929F92AF92BF92CF9202
:104A4000DF92EF92FF92CF93DF93EC01688179813F
:104A50008A819B81611571058105910521F464E2CC
:104A600079ED8BE597E02DE133EF41E050E00E94D6
:104A7000F72649015A019B01AC01A7EAB1E40E9463
:104A800016276B017C01ACEEB4EFA50194010E94E6
:104A90002427DC01CB018C0D9D1DAE1DBF1DB7FF72
:104AA00003C00197A109B04888839983AA83BB8377
:104AB0009F77DF91CF91FF90EF90DF90CF90BF90E5
:104AC000AF909F908F9008950E941B25089580E0DD
:104AD00091E00E941B250895B0E0A0E080930001C2
:104AE00090930101A0930201B093030108950F93E5
:104AF0001F93CF93DF938230910510F482E090E012
:104B0000E091F003F091F10330E020E0B0E0A0E0AC
:104B1000309799F42115310509F447C0281B390B4A
:104B200024303105C0F58A819B816115710571F1D1
:104B3000FB0193838283FE0111C040815181028178
:104B4000138148175907F8F04817590799F4109737
:104B500061F012960C93129713961C933296CF0124
:104B6000DF91CF911F910F9108950093F00310935F
:104B7000F103F4CF2115310519F04217530718F44A
:104B80009A01BD01EF01DF01F801C2CF9093F1035B
:104B90008093F003D0CFFE01E20FF31F8193919336
:104BA0002250310939832883DACF2091EE033091E6
:104BB000EF03232B41F4209106013091070130933C
:104BC000EF032093EE03209104013091050121159C
:104BD000310541F42DB73EB74091080150910901CC
:104BE000241B350B4091EE035091EF0342175307FE
:104BF00008F0B5CF241B350B2817390708F4AFCFC1
:104C0000BC016E5F7F4F2617370708F4A8CF640FEB
:104C1000751F7093EF036093EE03FA0181939193F4
:104C20009ECFCF93DF930097E9F0FC013297138278
:104C30001282C091F003D091F103DE0130E020E058
:104C40002097A1F420813181820F931F2091EE03E0
:104C50003091EF032817390709F067C0F093EF038D
:104C6000E093EE03DF91CF910895DA01AE17BF070D
:104C700008F040C012964D915C9113979D0141152B
:104C8000510599F7D9011396FC93EE9312974D9124
:104C90005D91A40FB51FEA17FB0779F4808191811C
:104CA0000296840F951FD90111969C938E93828151
:104CB000938113969C938E931297B0E0A0E08A8123
:104CC0009B810097B9F5FE0181919191E80FF91F41
:104CD0008091EE039091EF038E179F0719F61097BE
:104CE00061F51092F1031092F003D093EF03C0939B
:104CF000EE03B8CFB383A28340815181840F951F07
:104D0000A817B90771F44E5F5F4F8D919C91119771
:104D1000480F591F5183408312968D919C91938324
:104D200082832115310509F0ADCFF093F103E093B3
:104D3000F00398CFDE01EC01C2CF13961C921E92B5
:104D40001297D3CFFC014150504030F0019006162D
:104D5000D1F73197CF010895882799270895F999B8
:104D6000FECF92BD81BDF89A992780B50895A6E13E
:104D7000B0E044E050E00C94E926A8E1B0E042E065
:104D800050E00C94E926262FF999FECF92BD81BD03
:104D9000F89A019700B4021639F01FBA20BD0FB679
:104DA000F894FA9AF99A0FBE08950396272F0E9455
:104DB000C4260E94C326252F0E94C426242F0C94AB
:104DC000C4260196272F0E94C4260C94C326DC011A
:104DD000CB01FC01F999FECF06C0F2BDE1BDF89A06
:104DE000319600B40D9241505040B8F70895052E09
:104DF00097FB1EF400940E940E2757FD07D00E94D7
:104E0000292707FC03D04EF40C940E2750954095AB
:104E1000309521953F4F4F4F5F4F08959095809566
:104E2000709561957F4F8F4F9F4F08950E944B273C
:104E3000A59F900DB49F900DA49F800D911D1124EE
:104E40000895B7FF0C9416270E941627821B930B18
:104E50000895A1E21A2EAA1BBB1BFD010DC0AA1FBB
:104E6000BB1FEE1FFF1FA217B307E407F50720F0D3
:104E7000A21BB30BE40BF50B661F771F881F991F4E
:104E80001A9469F760957095809590959B01AC0197
:104E9000BD01CF010895A29FB001B39FC001A39FA0
:104EA000700D811D1124911DB29F700D811D112463
:104EB000911D0895F894FFCF520952095B095B09CF
:104EC0005D095B095B095B095209520962095B09CB
:104ED0005B096209600C880C2A0E880C2A0EBB0C38
:104EE000DC0C2A0EE50DF20DD715E8150B16E615AC
:104EF000091610160E169719A119A819AD19B2198D
:104F0000B719BC19C119C619CB19D0199E17D519D3
:104F1000DA19DD19E019E319E619E819EB19851A10
:104F2000851A111B111B651BBB1AF51CBB1A811BB3
:104F3000591C6A1C6A1CFF1C2C1D091D0C1D131D0D
:044F40000F1D181D0C
:104F4400010000000000F203200001191A1B1C1DBF
:104F54001E1F202122010220004904D2094804CE48
:104F640009C509010001020202020606060909092F
:104F74000909090F0F0F0F0F0F1515151819191916
:104F84001919191919191923242525252525250049
:104F94000D010D020D030D040D050D000C010C0295
:104FA4000C030C040C050C000B010B020B030B048B
:104FB4000B050B000A010A020A030A040A050A0087
:104FC4000901090209030904090509000801080285
:104FD400080308040805080007010702070307047B
:104FE4000705070006010602060306040605060077
:104FF4000501050205030504050505000401040275
:10500400040304040405040003010302030303046A
:105014000305030002010202020302040205020066
:105024000101010201030104010501000001000264
:1050340000030004000500818283E200E900EA0025
:10504400B500B600B700CD008301CC008A019201FF
:1050540094012102230224022502260227022A02A5
:08506400B300B4006F007000FE
:00000001FF
